:08180000602704000000000055
:081850009213040000000000E7
:081860008012040000000000EA
:08187000D61304000000000083
:1018A0009E10040000000000B811040000000000B9
:0818E8002A13040000000000B7
:10192000A0200400000000001222040000000000BB
:081930005E130400000000003A
:101970001C140400000000006414040000000000B7
:081BF8003220EF0083E0200021
:101C0000008041001040BA000160EF0000000600B3
:101C10000D0A000020780000203D00003D2000005B
:101C200025640000000000003220EF0003E22000E5
:101C3000008041001040BA000160EF000000060083
:101C40000D0A000020790000203D00003D2000002A
:101C50002564000000000000851F7800861F7800C2
:101C600020002000020BB400900278000000200049
:101C7000020BB40000027800140078000028E10094
:101C800004003A003558800010C0B300804A780044
:101C90002300370020002000020BB40080027800EF
:101CA000950AE80080002000020BB4009002780042
:101CB00040002000020BB400100378004130DD002A
:101CC00005034000245880000403980040002000D1
:101CD000020BB40080027800950AE8004000200062
:101CE000020BB4009002780000002000020BB40048
:101CF00000027800140078000028E10006003A0095
:101D000040002000020BB40080027800804AEB0003
:101D100000C0B3009042980035588000804AEB0024
:101D20004F037800CF02780000000600851F78007E
:101D300000002000360BB40080027800C4598000F7
:101D400084029800CF02780000000600851F78000A
:101D50000608F800360BF90020002000360BB4000E
:101D600090027800A45980000520E10005003200AF
:101D700020002000360BB400901F7800360BF900CD
:101D8000F5FF370020002000360BB40080027800F9
:101D900020002000340BB400900A7800342BEF00B0
:101DA000CF02780000000600851F7800861F7800AB
:101DB0000608F8001E0BF9001E0BE2003600320088
:101DC000000020001E0BB4009002780005F0A70070
:101DD0002C003700000020001E0BB400901F78007C
:101DE000220BF900200020001E0BB400901F780089
:101DF000200BF90000002000200BB40090027800B6
:101E000005F0A7001A0037001E8BBF00220BB4009C
:101E1000000378006403430006007800200BE30011
:101E200013003A0000002000200BB400901F78003F
:101E3000240BF90024598000640242000400780059
:101E4000222BB400200BF800340BF900A60E020080
:101E5000000000001E0BF800360BF900220BF80002
:101E6000380BF900960E0200000000000400370055
:101E7000200020001E0BB400901F78001E0BF900FC
:101E800004003700200020001E0BB400901F7800D3
:101E90001E0BF900C8FF37004F037800CF0278000F
:101EA00000000600851F7800000BE20002003A00E7
:101EB0001B003700180037000458800064005200EF
:101EC00002ABB70000002000020BB40090027800C3
:101ED00005F0A6000E00370000002000020BB40041
:101EE00090027800040028000480520004ABB70080
:101EF000020BF800360BF900040BF800380BF90060
:101F0000960E020000000000002BEF0002003700D8
:101F1000002BEF0002003700D40E0200000000008A
:101F2000CF02780000000600851F7800300BF80013
:101F3000320BF90000002000320BB4008002780060
:101F4000745980008402980020002000320BB400F5
:101F500080027800804AEB0000C0B30090429800F5
:101F6000320BF8000000F900CF02780000000600F4
:101F7000851F780020002000240BB4009002780018
:101F80000500E00007003A0020002000260BB40006
:101F900080027800804AEB0000C0B30090429800B5
:101FA0000600370020002000260BB40080027800D5
:101FB00020002000240BB400900A780020002000AC
:101FC000240BB40080027800345980008402980009
:101FD000CF02780000000600851F7800861F780079
:101FE000088BBF00610060000000E00001003200CB
:101FF000082BEC000608F8000A0BF9000A0BE200B7
:1020000041003200000020000A0BB400900278006A
:1020100005F0A70037003700000020000A0BB400CD
:1020200010037800445880000620E10031003E0093
:10203000000020000A0BB400901F78000E0BF9007E
:102040004458800064024200040078007458800004
:102050000020E1001E0036007458800043588000C4
:1020600083025200E482520054588000640242000D
:102070000403780006007800080BB4000003780021
:102080007559880086598800940F020000000000EE
:102090000CABB7000A0BF800240BF9000C0BF8008E
:1020A000260BF900B80F0200000000000400280011
:1020B00043588000848241000A0BF800360BF90077
:1020C000C5598800960E0200000000000800370085
:1020D0000400280073588000848241000A0BF80035
:1020E000360BF900C5598800960E0200000000006A
:1020F00005003700200020000A0BB400901F780074
:102100000A0BF900BDFF37000A0BE20003003A009A
:102110000020EF000600370005003700545880000B
:10212000640242000400780000A0B70000003700FD
:102130004F037800CF027800000006004200F8004C
:102140003600F8003200F800801F780020002000E0
:102150000C000900B01F78002202AE00FEFF37001D
:1021600030118000F6EAB700CA29EC000000EB004D
:102170002F29AF000000E8000160EF000080B200EE
:10218000030032001080B200060032003C0037002D
:10219000B4578000B4C5B20001003A002F29A8004E
:1021A00038003700D45580007720E10006003A005F
:1021B000B4578000D4C5B20003003200BA2AEF0041
:1021C0002F29A9002D003700B4578000D4C5B200D4
:1021D00024003A00BA8ABF00D009B4008002780017
:1021E000804AEB00BA2AEF00C829EC00249D2000A9
:1021F00014588800D009F800040BF90084AF2000BF
:10220000345888002C0E020000000000C4578000E3
:102210006120E10006003A00D009F800000BF90047
:10222000520F020000000000F029ED00CE29EC0062
:102230002F29A9009401200044588800EC0F0200C7
:1022400000000000D0A9B700D009E20003003A0066
:102250009560A900EE29EC0001003700F029EC00A0
:1022600006003700BA8ABF00D009B40080027800A7
:10227000F68ABF0080429800BA2AEC0001003700BD
:10228000000037008560A900A00120000C000900B3
:102290004F1078004F0078003200F9003600F90046
:1022A0004200F90000400600851F7800861F780074
:1022B000871F780020002000F80AB4009002780000
:1022C0000500E00004003A00E557800020C0B3009C
:1022D000804A78002200370020002000F80AB4006D
:1022E00080027800950AE900D55780008000200020
:1022F000F80AB4001003780060002000F80AB40067
:102300009003780007004300904A780060002000A6
:10231000F80AB40080027800950AE8006000200006
:10232000F80AB4009002780000002000F80AB40017
:1023300000027800140078000028E10006003A004E
:1023400060002000F80AB40080027800804AEB00A8
:1023500000C0B30090429800E5578000804AEB002F
:10236000CF0378004F037800CF027800000006000A
:102370008580A9004200F8003600F8003200F8001D
:10238000801F7800200020000C000900B01F78009A
:1023900064932000C457880064AF2000D45788009D
:1023A00074AF2000E45788005411020000000000C0
:1023B000F74AE20006003A00F6CABF002322AF0047
:1023C000FEFF370024E2B7002562EF00020037006D
:1023D0009580A9002F09A800A00120000C00090089
:1023E0004F1078004F0078003200F9003600F900F5
:1023F0004200F90000400600560BE20002003200E5
:10240000540BE20010003A00945A80006120E10071
:1024100003003A00C442A900C482A90005003700A5
:10242000945A80006220E10002003A00C402A90030
:10243000C422A90004192000040C880004192000FB
:10244000340C88002D003700945A80006120E10090
:1024500014003A00A45A80006120E10007003A000D
:10246000C442A800C482A900560BF8008001F900FC
:10247000560BF8008601F90009003700A45A8000C5
:102480006220E10006003A00C442A900C482A8000C
:10249000560BF8008001F900560BF8008601F90090
:1024A00016003700945A80006220E10013003A00C1
:1024B000A45A80006120E10007003A00C402A8008D
:1024C000C422A900560BF8008001F900560BF80051
:1024D0008601F90009003700A45A80006220E1005B
:1024E00006003A00C402A900C422A800560BF80056
:1024F0008001F900560BF8008601F9000000060083
:102500004200F8003600F8003200F800801F780022
:10251000200020000C000900B01F780064498000F2
:102520006120E10011003A0024002000945A880044
:1025300024002000A45A880044062000B45A8800D1
:10254000FC1102000000000014002000945A8800D2
:1025500024002000A45A880044062000B45A8800B1
:10256000FC110200000000003100370064498000C7
:102570006220E10011003A0024002000945A8800F3
:1025800014002000A45A880044062000B45A880091
:10259000FC1102000000000014002000945A880082
:1025A00024002000A45A880044062000B45A880061
:1025B000FC110200000000001D003700644980008B
:1025C0006320E1001A003A002C29EF0024002000CB
:1025D000945A8800542BEF00562BEF00FC11020098
:1025E0000000000014002000945A8800542BEF00D3
:1025F000562BEF00FC110200000000002322AF0068
:10260000FEFF3700B4052000241188002322AF000C
:10261000FEFF370084062000241188002322AF002B
:10262000FEFF3700D4052000241188009460A90023
:102630008460A900A00120000C0009004F10780060
:102640004F0078003200F9003600F9004200F9002E
:10265000004006004200F8003600F8003200F800A2
:10266000801F7800200020000C000900B01F7800B7
:10267000FC28EF00FE28EF000029EF000229EF0000
:102680000829EF000A29EF001A29EF001C29EF00A2
:1026900034002000644988008680A900A001200041
:1026A0000C0009004F1078004F0078003200F9004C
:1026B0003600F9004200F900004006004200F80030
:1026C0003600F8003200F800801F7800200020005B
:1026D0000C000900B01F7800FC28EF00FE28EF0076
:1026E0000029EF000229EF000429EF000629EF007E
:1026F0001629EF001829EF00240020006449880003
:1027000087A0A900A00120000C0009004F1078004C
:102710004F0078003200F9003600F9004200F9005D
:10272000004006004200F8003600F8003200F800D1
:10273000801F7800200020000C000900B01F7800E6
:1027400055168000638062001EA9B7001E89BF0075
:102750006100600020A9B7002089BF002289B6006F
:10276000800278000500E00004003A00FC28ED003B
:102770004200AE00FE28ED0003003700FC28EC000C
:102780004220AF00FE28EC008420A900A001200018
:102790000C0009004F1078004F0078003200F9005B
:1027A0003600F9004200F900004006004200F8003F
:1027B0003600F8003200F800801F7800200020006A
:1027C0000C000900B01F780055168000638062007D
:1027D0001EA9B7001E89BF00E202600015498800EB
:1027E0002229D5002089BF002289B6008002780006
:1027F0000500E00004003A00FC28EC004220AF0095
:10280000FE28EC0003003700FC28ED004200AE007B
:10281000FE28ED0084A0A900A00120000C00090002
:102820004F1078004F0078003200F9003600F900B0
:102830004200F900004006004200F8003600F800AF
:102840003200F800801F7800200020000C000900F2
:10285000B01F7800551680006C8062001EA9B7007A
:102860001E89BF00E4026000254988002429D500A4
:102870002429D5002489BF002689B600800278006B
:102880000500E00004003A000029ED004200AE001F
:102890000229ED00030037000029EC004220AF00C0
:1028A0000229EC0088A0A900A00120000C0009006A
:1028B0004F1078004F0078003200F9003600F90020
:1028C0004200F900004006004200F8003600F8001F
:1028D0003200F800801F7800200020000C00090062
:1028E000B01F7800551680006C8062001EA9B700EA
:1028F0001E89BF00E8026000354988002629D500FE
:102900002629D5002629D5002489BF002689B600AE
:10291000800278000500E00004003A000029EC0085
:102920004220AF000229EC00030037000029ED002F
:102930004200AE000229ED0088C0A900A0012000DD
:102940000C0009004F1078004F0078003200F900A9
:102950003600F9004200F90000400600851F7800AB
:10296000C500200003000900B51F780000027800B0
:102970008102780002037800830378000000EB00F6
:102980008000EB000001EB008001EB000800A100DB
:1029900007F0A600050037000800A0000402EA00C6
:1029A0008582EA000683EA008783EA0085047200D4
:1029B00002003A00870473001500320039472000F6
:1029C0000340A7000B0037004200A9000482D20098
:1029D0008582D2000683D2008783D2000080D20095
:1029E0008180D2000281D2008381D2008904E90073
:1029F000F3FF3A00C44CDD004200A90009F0A10039
:102A00000340A10083816C000800A70003F0A00030
:102A10002501200003000900CF127800CF027800C2
:102A200000000600881F780028012000040009002B
:102A3000B81F78008005EB006066B80003047800DA
:102A400087047800FA7F20004200A9004220A900F4
:102A500044C4DE00080465000800E0007100320094
:102A60004200A9004220A900C4CCDE008904650010
:102A70000900E0006B0032000884440009B0A700A0
:102A800004003700F83FB1006600320065003900ED
:102A9000030037001A4020008542450061003100E4
:102AA000878669004200A9004220A900F300B20015
:102AB0000340A000F700B2000740A000881F780084
:102AC0000124B800002DB8000A0544008B854C0095
:102AD0000C80B0000224B8008B0544000C864C002A
:102AE000012CB8000005EB008B0544000C864C005F
:102AF0000A80B0000034B8008B0544000C864C00FE
:102B00000A80B0008005EB000324B8000C064400E6
:102B10000A854C000B80B000022CB8000C06440063
:102B20000A854C000B80B0000134B8000C0644004C
:102B30000A854C000B80B000003CB8000C06440035
:102B40000A854C000B80B0000C0078000006EB00FA
:102B5000032CB8000A0544008B854C000C80B000A3
:102B60000234B8000A0544008B854C000C80B0008C
:102B70000334B8008B0544000C864C00013CB800BF
:102B80000A0544008B854C000C80B000023CB80064
:102B90008B0544000C864C00033CB8000C06440036
:102BA0008A0078000B0178008C0178005400200026
:102BB0004200A9008381D3000281D3008180D30029
:102BC0000080D3000402E900F9FF3A004F047800C6
:102BD0000804E80001037000010032000200370021
:102BE00003037100080032000340A700060037000D
:102BF0004200A9000080D2008180D2000281D20070
:102C00008381D2000804E9004444DD0003F0A10000
:102C10000DF0A70003F0A0000340A10083016C00A9
:102C2000030037006000B8006001B8000000370002
:102C3000A8012000040009004F1478004F04780018
:102C400000000600881F7800280120000400090009
:102C5000B81F78008786690003047800870478002D
:102C6000FA7F20004200A9004220A90044C4DE00EF
:102C7000080465000800E0006C0032004200A90072
:102C80004220A900C4CCDE00890465000900E000F0
:102C9000660032000005EB0009065400030039000D
:102CA000FC3FB00061003100040037001B402000F1
:102CB0000B0656005D0039005C0032000004EB009A
:102CC0008004EB000005EB008005EB00F301B2008F
:102CD0000340A000F701B2000740A0008C1F78005D
:102CE0006C03200004005000858058000601590044
:102CF00087815900020033000600310006003A00C7
:102D00000400400085804800060149008781490091
:102D1000010037000800A0000C06E9000B0032009B
:102D20004200A9000080D2008180D2000281D2003E
:102D30008381D2004200A9000884D2008984D20095
:102D40000A85D2008B85D200E6FF37004F06780057
:102D50000B50A70001003700060037004200A90011
:102D60008B85D3000A85D3008984D3000884D300DF
:102D7000030037000C06E9004200A9002B003200D6
:102D80004200AF00090037000080D2008180D200ED
:102D90000281D2008381D200040250008582580053
:102DA0000603590087835900150039000804E8001C
:102DB00013003A008904E80011003A000A05E8000F
:102DC0000F003A008B05E8000D003A000C06E80001
:102DD000160032000A0037000C06E900130032002A
:102DE0000B40A700060037004200A9000884D2006B
:102DF0008984D2000A85D2008B85D200F8FF370083
:102E00004466DD004200A9000CF0A1000DF0A7000F
:102E10000CF0A0000B40A1008B016E000A017800AD
:102E200089007800080078000500370000002000C5
:102E300001002000020020000300200000003700F5
:102E4000A8012000040009004F1478004F04780006
:102E500000000600851F7800861F780003027800B6
:102E6000030378004200A90044A2DE00F57F2000A1
:102E70000482620003003A006000B8000001EB0029
:102E8000130037000438B100F300B200370020000F
:102E90004200A9000080D2008180D2000281D200CD
:102EA0008381D2008703E900F9FF3A00010078002E
:102EB000820078000370A1000480FD004200A90098
:102EC0000482D30006F0A70004F0A00003016A000A
:102ED0004F037800CF02780000000600851F7800BD
:102EE000C500200004000900B51F7800000278002A
:102EF0008102780083037800020378004200A90071
:102F00004220A9008180D2000180FD00F10FB200B3
:102F10000100E0004B0032004200A9004220A9005D
:102F20008381D2000380FD00F30FB2000300E000B4
:102F3000440032000080FB0001C041000400310069
:102F4000F007B1003F0032003E00390002003700B8
:102F50001048B0003B00310007856A004200A9001C
:102F60004220A900F50FB2000570A0004200A900A0
:102F7000F70FB2000770A0000621B800062CB800B9
:102F800083014C00890078004200AF008100E80016
:102F90004200A900043CB80083014C0081804C0031
:102FA000072CB80081004C000000E8000100E000A0
:102FB0004220AF0001003700030037000300E000AB
:102FC0004220AF000500370001F0A70003003700E2
:102FD0008381D2008180D2000000E90001017800E5
:102FE0004200A9000370A6000900370007F02F0077
:102FF000878161000310B000600149000200E00019
:1030000003003A000300E00001003A000000E8007D
:103010000080FD004200A9004220A9008080D3006A
:103020000AF0A70001F0A00002F0A1000280FD005C
:10303000814069000380FD000341780002007800B0
:1030400003003700000020000100200000003700CE
:103050004501200004000900CF127800CF0278005B
:1030600000000600851F7800C5002000040009004C
:10307000B51F78008004EB008384680001037800AA
:103080008002780003047800820378008180D200F7
:103090000180FD008180FB000100E0004E00320055
:1030A0008381D2000380FD008381FB000300E000E8
:1030B000490032000000EB0003C05000030039005B
:1030C000F047B00044003100030037001048B10061
:1030D0004100390040003200850078000601780088
:1030E0000270A000F20FB200F80FB2000870A0004A
:1030F0009A0120008001EB000002EB008780500065
:1031000008015900020033000400310004003A00B5
:103110008780400008014900010037000400A0003A
:103120000A05E900070032004200A9008180D200B0
:103130000281D2004200A9000482D2008381D20021
:10314000EEFF37000005EB000380A7000100370009
:10315000060037004200A9008381D3000370A1005C
:103160000482D3000A85D200020037000000E90083
:10317000190032000AF0A700050039008180D20052
:103180000281D200878050000801590009003900EF
:103190000402E80007003A008301E80005003A0055
:1031A0000000E8000C003200020037000000E900D7
:1031B000090032000080FD008080D30001F0A000F3
:1031C00009F0A60001F0A1000370A10081C0690010
:1031D00004007800030037000000200001002000F8
:1031E000000037004501200004000900CF127800DC
:1031F000CF02780000000600851F7800861F780047
:10320000871F7800881F7800FC88BF00F147800086
:103210008001EB0001F0A7008081EB000301780042
:10322000AE14020000000000040020000500200091
:1032300006002000E7012400121502000000000033
:10324000800278000103780082037800030478008C
:10325000851F7800861F7800871F7800050078009A
:1032600086007800070178008801780004002000BB
:103270000500200006002000070524002216020099
:1032800000000000CF0378004F037800CF027800E1
:103290002A170200000000002148880032488800F8
:1032A0000089BF00114880008001EB0001F0A700F9
:1032B0008081EB0003017800AE14020000000000E2
:1032C000040020000500200006002000E701240083
:1032D000121502000000000080027800010378004F
:1032E0008203780003047800851F7800861F780029
:1032F000871F7800050078008600780007017800B5
:10330000880178000400200005002000060020004D
:10331000070524002216020000000000CF037800F9
:103320004F037800CF0278002A1702000000000047
:1033300041488800524888000489BF003148800015
:1033400002002000030424006E17020000000000A9
:10335000800278000103780005007800860078007C
:1033600042498000534980006E17020000000000AF
:10337000800278000103780005007800860078005C
:103380000200200043332400321802000000000035
:1033900016A9B700C14888000889BF0051488000BD
:1033A00002002000030424006E1702000000000049
:1033B000800278000103780005007800860078001C
:1033C00042498000534980006E170200000000004F
:1033D00080027800010378000500780086007800FC
:1033E00002002000433324003218020000000000D5
:1033F0001AA9B700E14888004F047800CF0378008D
:103400004F037800CF02780000000600851F780087
:10341000C500200005000900B51F780003047800EE
:10342000820378000103780080027800830478002A
:103430003B472000C499DE00FA7F2000830165002D
:1034400083855500F801B2000840A0000000EB00A1
:103450008000EB000001EB008001EB004200A900BE
:103460000884D3008783D3000683D3008582D300EA
:103470008381D3000281D3008180D3000080D300F8
:103480008B05E900F5FF3A0009F0A60005003700BA
:103490000000EA008180EA000281EA008381EA00FC
:1034A000000037006501200005000900CF127800F8
:1034B000CF02780000000600851F7800861F780084
:1034C000E10820000000E0001200320000F0A70038
:1034D000040037004200A9000080D2008100E9000A
:1034E000FAFF37000180FD004200A9008180D3006F
:1034F00000F0A1000080FD00814068000040B200A3
:1035000007003700014078000170A0000140B200C0
:10351000030037000000EB008000EB0000003700E4
:103520004F037800CF02780000000600851F780066
:10353000C500200003000900B51F78008004EB00DF
:10354000080028004300AF0083016C000000E00089
:1035500003003A00FAFF27000A8560004220AE000F
:10356000010578008A8569000103780083037800EB
:10357000030678004220A9004200A9000683D20079
:103580000680FD00F60FB2000600E000A100320048
:103590004220A9004200A9008783D2000780FD00D5
:1035A000F70FB2000700E0009F0032004220A900A0
:1035B0004200A9000638E1009C003200A30033005D
:1035C0000900A1000910A000068453000703780039
:1035D000F10FB2000170A000F30FB2000370A00061
:1035E000870220000838E100110033004220A900C2
:1035F0004200A9008180D3000080D3000804E900C4
:10360000FAFF3A000D003700870220000838E10079
:10361000090033004220A9004200A9008381D300A1
:103620000281D3000804E900FAFF3A000F003700D6
:103630000200780083007800430037000BF0A600FA
:10364000110037000940A7008C0578000000EA004F
:103650000200320081C0EA00010037008100EA0068
:103660000940A7002B003700070037000BF0A60029
:10367000050037000201EA000200320083C1EA00BF
:10368000010037008301EA00F50FB2004220A900D3
:103690004200A9000200400083C048004200AF0081
:1036A0000930A0000900A700090037000910A70091
:1036B000010037000B0037000BF0A70015003700A2
:1036C0000930A700290037000960A0001E0037005C
:1036D0000BF0A7000F0037000930A70023003700C8
:1036E000190037000920A1000BF0A70004003700E3
:1036F0008A0578000930A7001C0037003600370023
:103700000940A00001C8B2000170A700CDFF37003A
:103710008A057800F10FB200810370000A003200C0
:103720000170A700080037004220A9004200A9004C
:103730000080D2008180D2000603E9004220AF0061
:1037400031003700F6FF37000900A7008A0578002E
:103750000910A7008C0578000950A6001A00370050
:103760000AF0A7000080A0001B0037004200A8005C
:1037700081C0D3000080D3004200AF000950A000F8
:103780000603E800200032000950A60008003700B8
:103790000000E80006003A008140E80004003A001A
:1037A00081C0D3000080D3000603E8001600320079
:1037B0000900A7008A0578000910A7008C05780089
:1037C0004220AF00100037000960A7008A0578008A
:1037D0000970A7008C0578000101700023003200F9
:1037E0000170A1000680FD004220A9004200A9004E
:1037F0000683D30081006B0001F0A0000BF0A6004F
:1038000001F0A10019003700000020000100200095
:10381000160037000AF0A70083016C000200780050
:10382000830078001100370010003700F30FB2005A
:103830000370A000F10FB2000170A0000BF0A70010
:103840000370A1000920A00088FF3700070453007F
:10385000F10FB2000170A000F30FB2000370A000DE
:103860000910A1000900A00067FF37002501200012
:1038700003000900CF127800CF0278000000060094
:103880000001780081017800014078000080FD008F
:1038900000F0A0008180D2000180FD008180FB004B
:1038A000E408200081405200060032000000E000E1
:1038B000040032004200A9000080D3008100E9002A
:1038C000FAFF3A0003F0A600020037000000EA0009
:1038D0000000370000000600851F7800861F780072
:1038E000E10820000600A10000F0A6000300370058
:1038F0000600A0000000EA00000037000000E00021
:103900001400320000F0A700040037004200A900B4
:103910000080D2008100E900FAFF37000180FD003D
:103920004200A9008180D30000F0A1000080FD00CA
:10393000814068000040B2000600A70001F0A0002E
:1039400007003700014078000170A0000140B2007C
:10395000030037000000EB008000EB0000003700A0
:103960004F037800CF02780000000600851F780022
:10397000861F7800871F78000382680004F0A60085
:10398000060037004200A9004220A90001F0A6006D
:10399000260037004200A80024003700010278000A
:1039A0008002780003037800820378008180D200CF
:1039B0000180FD008381D2000380FD0081C05100A1
:1039C0000500320004F0A6001800370010002000A7
:1039D00042E0B60015003700844078008641780048
:1039E0000170A1000370A10081C0510005003200E8
:1039F00004F0A6000D0037001000200042E0B600E1
:103A00000A003700858053000500320004F0A6004C
:103A1000060037001000200042E0B6000300370027
:103A20004200A9000100370000003700CF037800F2
:103A30004F037800CF02780000000600851F780051
:103A4000861F7800645880006120E100DB003A00A6
:103A50000E0BF800160BF900100BF800180BF9000C
:103A6000120BF8001A0BF900140BF8001C0BF900EC
:103A7000BA28EF00041A2400E4458800C45A2C0038
:103A8000144688007472230024468800CA28EF0078
:103A900004102400644688004300A800168BBF0071
:103AA000C1588000D2588000E3588000961A020066
:103AB00000000000401C020000000000D2A8B70077
:103AC000D288BF006C1C0200000000004300A90067
:103AD0000001780081017800D688BF00C1468000CF
:103AE000961A020000000000D6A8B700C146880060
:103AF000D288BF006C1C02000000000000017800AA
:103B000081017800BA88BF00E14580006E1702008D
:103B1000000000008002780001037800C288BF0026
:103B200021468000B2468000C34680006E17020026
:103B3000000000004300A900000178008101780026
:103B40000500780086007800961A02000000000048
:103B50008002780001037800D288BF006C1C02004C
:103B6000000000004300A8007247800083478000E7
:103B7000961A020000000000000178008101780020
:103B8000CA88BF00614680006E1702000000000076
:103B90004300A90000017800810178000500780049
:103BA00086007800961A020000000000DEA8B70028
:103BB00001478800D288BF006C1C02000000000092
:103BC000EEA8B70081478800D288BF0000F0A600A9
:103BD00003003700040020009346800003005200D9
:103BE00080027800050078006C1C020000000000D4
:103BF0000001780081017800F688BF00C14780008D
:103C0000B61C02000000000055003900DE88BF002D
:103C10000147800001F0A1008002780001037800D4
:103C200000002000F13724000501780086017800AB
:103C3000B61C02000000000004003900E628EF0076
:103C4000F43724004447880024003700DE88BF0092
:103C50000147800001F0A100800278000103780094
:103C600005007800860078000200200083242400EC
:103C7000B61C02000000000003003900E628EF0037
:103C8000E828EF0015003700DE88BF0001478000FC
:103C900002002000F3372400321802000000000068
:103CA0008002780001037800050078008600780023
:103CB00002002000833C24006E1702000000000078
:103CC0008002780001037800050078008600780003
:103CD00001F0A100E6A8B7004147880000002000DD
:103CE00001002000F246800003478000B61C02005D
:103CF000000000000D003900E688BF004147800049
:103D0000401C020000000000800278000C0BF8004C
:103D1000520BF90014002000A45A8800B55A8800FC
:103D2000FC110200000000000C003700E688BF0014
:103D300041478000401C0200000000008002780023
:103D40000C0BF800520BF90024002000A45A880044
:103D5000B55A8800FC110200000000001600370070
:103D600014002000945A8800542BEF00562BEF00CB
:103D7000FC110200000000003409E2000E003A00CD
:103D80002322AF00FEFF3700B40520002411880075
:103D90002322AF00FEFF37005406200024118800C4
:103DA0002322AF00FEFF3700D40520002411880035
:103DB00014002000A4498800DE0037006458800009
:103DC0006220E100DB003A000E0BF8001E0BF90048
:103DD000100BF800200BF900120BF800220BF90071
:103DE000140BF800240BF900BE28EF00041A24007D
:103DF00004468800D47B230034468800645823009E
:103E00004446880074712B0074468800148D23008A
:103E1000844688004300A8001E8BBF000159800023
:103E20001259800023598000961A020000000000F9
:103E3000401C020000000000D4A8B700D488BF00D6
:103E40006C1C0200000000004300A9000001780083
:103E500081017800DA88BF00E1468000961A0200EE
:103E600000000000DAA8B700E1468800D488BF004F
:103E70006C1C020000000000000178008101780045
:103E8000BE88BF00014680006E17020000000000DF
:103E90008002780001037800C688BF004146800098
:103EA000D2468000E34680006E170200000000004A
:103EB0004300A90000017800810178000500780026
:103EC00086007800961A0200000000008002780048
:103ED00001037800D488BF006C1C020000000000C1
:103EE0004300A80092478000A3478000961A020072
:103EF000000000000001780081017800CE88BF003A
:103F0000814680006E170200000000004300A900F7
:103F100000017800810178000500780086007800B3
:103F2000961A020000000000E2A8B70021478800AE
:103F3000D488BF006C1C020000000000F2A8B7008B
:103F4000A1478800D488BF0000F0A6000300370016
:103F500004002000A3468000030052008002780085
:103F6000050078006C1C02000000000000017800D1
:103F700081017800F688BF00C1478000B61C0200AE
:103F80000000000055003900E288BF002147800092
:103F900001F0A100800278000103780000002000F9
:103FA000F13724000501780086017800B61C020074
:103FB0000000000004003900EA28EF00F437240074
:103FC0006447880024003700E288BF002147800052
:103FD00001F0A1008002780001037800050078005C
:103FE000860078000200200083242400B61C020012
:103FF0000000000003003900EA28EF00EC28EF0081
:1040000015003700E288BF00214780000200200031
:10401000F33724003218020000000000800278000C
:104020000103780005007800860078000200200077
:10403000833C24006E17020000000000800278001C
:1040400001037800050078008600780001F0A100E7
:10405000EAA8B700614788000000200001002000A6
:104060001247800023478000B61C020000000000B9
:104070000D003900EA88BF0061478000401C020043
:1040800000000000800278000C0BF800520BF900D1
:1040900014002000A45A8800B55A8800FC110200C0
:1040A000000000000C003700EA88BF006147800074
:1040B000401C020000000000800278000C0BF80099
:1040C000520BF90024002000A45A8800B55A880039
:1040D000FC11020000000000160037002400200040
:1040E000945A8800542BEF00562BEF00FC1102006D
:1040F000000000003409E2000E003A002322AF0065
:10410000FEFF3700B4052000241188002322AF00F1
:10411000FEFF370054062000241188002322AF0040
:10412000FEFF3700D4052000241188001400200071
:10413000A44988004F037800CF02780000000600F1
:104140004200F8003600F8003200F800801F7800C6
:10415000200020000C000900B01F78009780A90003
:10416000FC180200000000007449800074C7B2000F
:1041700048003A000C89BF000E09B400010020007D
:104180000200200003002000AE1402000000000026
:10419000000278008102780002037800830378002F
:1041A00000002000010020000200200003FE230088
:1041B0001215020000000000061A020000000000B4
:1041C00010A9B700644880007348800003005200C3
:1041D000010020000200200003002000AE140200B5
:1041E00000000000000278008102780002037800DD
:1041F000830378000000200001002000020020005E
:1042000003FE23001215020000000000061A02003F
:104210000000000012A9B7001089BF005C1A02005C
:1042200000000000800278000103780014002000E4
:104230006458880075588800865888001609F80068
:10424000120BF9001809F800140BF9001E1D0200EA
:10425000000000001289BF005C1A0200000000008C
:104260008002780001037800240020006458880050
:1042700075588800865888001A09F800120BF90052
:104280001C09F800140BF9001E1D020000000000BC
:104290005B0037007449800034C7B20011003A0057
:1042A00014002000945A880024002000A45A88009A
:1042B00044062000B45A8800FC11020000000000EF
:1042C00024002000945A880014002000A45A88007A
:1042D00044062000B45A8800FC11020000000000CF
:1042E000470037007449800014C3B20015003A003B
:1042F00014002000645888000E2BEF00102BEF00F4
:104300001609F800120BF9001809F800140BF9004F
:104310001E1D0200000000002400200064588800D8
:104320000E2BEF00102BEF001A09F800120BF9000A
:104330001C09F800140BF9001E1D0200000000000B
:104340002F0037007449800024C3B20015003A00E2
:1043500014002000645888000E2BEF00102BEF0093
:104360001609F800120BF9001809F800140BF900EF
:104370001E1D020000000000240020006458880078
:104380000E2BEF00102BEF001A09F800120BF900AA
:104390001C09F800140BF9001E1D020000000000AB
:1043A000170037007449800034C3B20014003A008B
:1043B00014002000645888000E2BEF00102BEF0033
:1043C0001609F800120BF9001809F800140BF9008F
:1043D0001E1D020000000000240020006458880018
:1043E0000E2BEF00102BEF001A09F800120BF9004A
:1043F0001C09F800140BF9001E1D0200000000004B
:104400008760A900A00120000C0009004F1078006F
:104410004F0078003200F9003600F9004200F90040
:10442000004006004200F8003600F8003200F800B4
:10443000801F7800200020000C000900B01F7800C9
:104440009760A9008780A900A00120000C00090046
:104450004F1078004F0078003200F9003600F90064
:104460004200F9000040060081E0A900040E20008F
:104470001402880081E0A80000000600851F780073
:104480002CA3EF000516800080FE2F00850260003F
:104490000516880045168000F0F32F0085026000A5
:1044A000451688001E89BF006100600020A9B70082
:1044B0001E89BF00E2026000154988002229D5004C
:1044C0001E89BF00E4026000254988002429D50028
:1044D0002429D5001E89BF00E80260003549880004
:1044E0002629D5002629D5002629D5001408200024
:1044F000140A88008420A9009420A8001408200031
:10450000340A880084A0A90094A0A8001408200000
:10451000540A880088A0A90098A0A80014082000C8
:10452000740A880088C0A90098C0A8008680A900E5
:104530009680A80087A0A90097A0A800FA28EF00FD
:10454000FA08F8008201F900FA08F8008001F90081
:10455000E4002000240C8800FA08F8008801F90023
:10456000FA08F8008601F900E4002000540C8800E5
:104570000021EF000421EF00948621001408880038
:1045800004032800240888000621EF001021EF0012
:104590000CA1EF0004002800840888000A21EF0025
:1045A0001221EF000419200074088800040028007C
:1045B000940888001421EF001E21EF00948621004A
:1045C000D408880004032800F40888001821EF00AC
:1045D0002021EF0004272000E408880004032800BD
:1045E00004098800CF027800000006002F09A80007
:1045F000C229EF00C429EF00CC29EF00C829EF0041
:10460000CA29EF00CE29EF00EE29EF00F029EF00D4
:10461000000006004200F80081E0A90042E0EF003F
:1046200081E0A8009401200044588800EC0F0200AB
:104630000000000081E0A9004200F90081E0A8002C
:10464000D0A9B700D009E20006003200F029EC0042
:10465000030009002682BF008560A9009560A800BC
:1046600001003700EE29EC0000000600851F7800ED
:1046700000002000BE0AB4008002780014568000BA
:104680008402980020002000BE0AB4008002780056
:10469000804AEB0000C0B300904298004000200028
:1046A000BE0AB40080027800804AEB0000C0B3006C
:1046B0009042980060002000BE0AB400800278009A
:1046C000804AEB0000C0B3009042980080002000B8
:1046D000BE0AB4008002780004568000840298006C
:1046E000CF02780000000600851F7800000020003F
:1046F000BE0AB4008002780014568000840298003C
:1047000020002000BE0AB40080027800804AEB003E
:1047100000C0B3009042980040002000BE0AB400E0
:1047200080027800804AEB0000C0B30090429800FD
:1047300060002000BE0AB40080027800804AEB00CE
:1047400000C0B3009042980080002000BE0AB40070
:10475000800278000456800084029800CF0278001E
:1047600000000600249D2000F4558800C49D200010
:104770000456880084002000145688003623020066
:104780000000000064932000F45588000494200089
:104790000456880004082000145688007423020080
:1047A000000000000000060081E0A9004220EF00A8
:1047B00081E0A80000000600851F7800861F7800B1
:1047C000871F780020002000BE0AB4009002780005
:1047D0000500E00004003A001556800020C0B30038
:1047E000804A78002500370020002000BE0AB4006F
:1047F00080027800950AE90000002000C00AB40099
:104800008002780080002000BE0AB4001003780007
:1048100060002000BE0AB40090037800C13BDD00B8
:1048200007004300900A780060002000BE0AB40030
:1048300080027800950AE80060002000BE0AB400FB
:104840009002780000002000BE0AB4000002780048
:10485000140078000028E10006003A006000200003
:10486000BE0AB40080027800804AEB0000C0B300AA
:104870009042980015568000804AEB00CF037800E4
:104880004F037800CF02780000000600851F7800F3
:10489000861F7800DC0AF800DE0AF900DE8ABF0015
:1048A000904278008502FB000500E0000200320023
:1048B000DE2AEC00F9FF3700F4568000E356800052
:1048C000030052004F037800CF027800000006007A
:1048D000851F7800C500200003000900B51F78007F
:1048E00000F0A6000C0037000000EA000480A000E1
:1048F00004F0A60008003700801F7800D0022000D6
:104900002322AF00FEFF370024A2B7004F0078003B
:104910000480A1000860ED008002EB0080037800B5
:104920008404780004F0A1000404E00006003A00CA
:1049300009F0A70002003700050020000F00370033
:10494000050020000D003700E64252000A00390041
:104950000003200009F0A600000220002322AF007F
:10496000FEFF370024A2B7008502E900FBFF3B00F1
:104970005500200001003700840278006400200008
:104980000580A7000402E80005E0A00009F0A700E8
:1049900005F0A00008712200110009008883D800EA
:1049A000142502000000000081037800883E2000EA
:1049B000110009008883D8001425020000000000BF
:1049C0008103780048062000110009008883D80080
:1049D000142502000000000081037800A8002000D8
:1049E000110009008883D80014250200000000008F
:1049F0000980A60005003700D00220002322AF0066
:104A0000FEFF370024A2B7000980A10000032000A8
:104A100000C04000500188002322AF00FEFF370095
:104A200024A2B70020003700060320000000E000A9
:104A30000E003A0005E0A600160037000402E90067
:104A40000524E100020032004200AF000000060031
:104A50000000E00005003A0005E0A6000D00370068
:104A600005F0A600060220000A00370005E0A100BC
:104A70000980A6000700370000057800D00220005A
:104A80002322AF00FEFF370024A2B7000980A10057
:104A90000A007800004043002322AF00FEFF3700E9
:104AA00024A2B70000000600250120000300090031
:104AB000CF127800CF02780000000600F456800084
:104AC0000443B1000440780000E0B7000000060095
:104AD000851F7800BE2AEF00C02AEF00C22AEF002F
:104AE000C42AEF00C62AEF00C82AEF00CA2AEF0046
:104AF000D02AEF0064A5200064568800249F20007F
:104B000074568800D26AEF00EC09F800DC0AF9005C
:104B10004624020000000000945680000024E100BA
:104B2000E5003100945680000960EF000400780031
:104B3000EC09B4001042780084C2B20003003A00CD
:104B400014002000F4558800D900370094568000E6
:104B50000960EF0004007800EC09B400104278000E
:104B6000C4C2B2004E003A00F45580006120E1005A
:104B70004A003A00045680006120E10002003A0039
:104B8000C20AF800CA0AF900045680006220E10057
:104B900006003A00145680006A20B80080027800AF
:104BA00005007800C40AB400CAAAB7000456800001
:104BB0006320E1000A003A001456800043062000FA
:104BC0000320B80080027800245680006A20B800D4
:104BD0008502400005007800C60AB400CAAAB700E2
:104BE000045680006420E1000E003A001456800054
:104BF000833E20000320B800800278002456800005
:104C0000430620000320B80085024000345680008F
:104C10006A20B8008502400005007800C80AB40088
:104C2000CAAAB70001002000010078000160EF006F
:104C3000FC0D0200000000008100E8002322AF000C
:104C4000FEFF370024A2B700700020000008E60035
:104C5000F5FF3700CA8ABF00040020006824020064
:104C60000000000054568000A3002000110009003D
:104C70000382D8000CA9B700D08ABF004100DD0034
:104C80007456800004004000800278005456800072
:104C900084029800C02AEF00BE2AEF00840037008B
:104CA000945680000960EF0004007800EC09B4001D
:104CB0001042780094C2B20050003A0004568000BE
:104CC0006120E10002003A00C20AF800CA0AF900B5
:104CD000045680006220E10006003A00145680006D
:104CE0006A20B8008002780005007800C40AB40089
:104CF000CAAAB700045680006320E1000A003A0007
:104D000014568000430620000320B800800278007B
:104D1000245680006A20B800850240000500780013
:104D2000C60AB400CAAAB700045680006420E10095
:104D30000E003A0014568000833E20000320B80085
:104D40008002780024568000430620000320B8002B
:104D500085024000345680006A20B8008502400079
:104D600005007800C80AB400CAAAB70001002000F4
:104D7000010078000160EF00140E02000000000046
:104D80008100E8002322AF00FEFF370024A2B70015
:104D9000700020000008E600F5FF3700CA8ABF0057
:104DA0000400200068240200000000005456800027
:104DB000A3002000110009000382D8000EA9B7004B
:104DC000D08ABF004100DD0064568000040040002E
:104DD000800278005456800084029800C02AEF00B8
:104DE000D02AEC0070C7B3002EE9B7003429EF00D9
:104DF0008760A9009760A8002D003700C00AE20074
:104E00000C003A00945680000960EF00040078001E
:104E1000EC09B40090427800DE0AF800E5FF9F003C
:104E2000DE0AF9005E25020000000000C2EAB700B9
:104E3000C36AEF00045680006120E1000C003A00D4
:104E4000945680000960EF0004007800EC09B4007B
:104E500090427800DE0AF800E5FF9F00DE0AF900C4
:104E60005E25020000000000C4EAB700C56AEF003A
:104E7000045680006220E1000C003A009456800045
:104E80000960EF0004007800EC09B400904278005B
:104E9000DE0AF800E5FF9F00DE0AF9005E25020049
:104EA00000000000C6EAB700C76AEF00C02AEC00A5
:104EB000D26AEC0014FF3700CF0278000000060031
:104EC0000F782200F07F220020A0B7000000000031
:104ED0004044240020058800404424004005880008
:104EE000404424008005880081E0A8006004200080
:104EF00042E7B7007005200042E7B70042C7A900AB
:104F0000F053200080A6B70040F0230082A6B7002F
:104F1000001020008EA6B7002030200090A6B70019
:104F2000C0F02300A4A6B70020312100C6A6B70018
:104F300000302000CCA6B7006004200042E7B70094
:104F40007005200042E7B70042C7A8004427EF00E1
:104F50000400280004118800044020001411880077
:104F60002062A8002402200044118800630037005A
:104F7000800203002CFFFF008002070044000000B5
:104F800080020700440000008002080000000000CA
:104F900080020800000000008002080000000000FD
:104FA000C0080800080000004BF03F005C0A5800F1
:104FB000F63B8F0000C03C008B28AC003CBEF600E6
:104FC0003FD2D50044168C0015D7BF0069005A00A7
:104FD0002E1B8700993F9A005FAD4B0091E40100C2
:104FE000C05D11002F92E40081FB3F0038DA910090
:104FF000809DC500E0BF6F0012C0B400C309AB00C4
:105000003F6BC100034EC100B545BF00F74005002E
:10501000FF005A00EF3FF300A3E2F700D7FF0100C3
:1050200040C0B400FF053C0058FC3F003BD3C0002B
:10503000B5BA8C00E23F3900D3C73D004179B200D8
:105040003F870D003C50D000AF623F00304B8D00D9
:10505000A282AA0004400900A0404A00057603008D
:1050600040EC9E003788A60044F03F008F128D0070
:10507000299A5B00C73F0E00E0807C00A1D8860023
:105080003F294B00FB95C200371A3F00403F00000C
:1050900000014000401A0000C0080900160080000E
:1050A0000609280033334300410100008001090054
:1050B0002F00800001092F0000C188000934000082
:1050C000000000000201E8006110E10004003A0065
:1050D0009101BA003182BA0006C0BF00000006008C
:1050E0006210E10002003A0007C0BF0000000600A5
:1050F00008C0BF000001EB00000006000600200011
:105100000000200090018800807B22008000780051
:105110000001EB0062280200000000000BE0B70075
:1051200062280200000000000AE0B7000500E0006D
:105130001900320005F0A6000700370062280200BF
:10514000000000000DE0B70062280200000000002F
:105150000CE0B70005F0A10005E0A600080037004C
:1051600005E0A1008502E9006228020000000000BD
:105170008043780005800900075B7800E5FF370071
:105180006228020000000000005B78008502E90050
:10519000FBFF3A00DFFF3700A4B520003440880051
:1051A00024C22100D45A88005C2BEF003422020074
:1051B000000000003E22020000000000F622020073
:1051C000000000000A23020000000000B2230200D9
:1051D00000000000D423020000000000342202007E
:1051E00000000000249D2000F4558800C49E20008B
:1051F00004568800C4AB200014568800DC2302004B
:1052000000000000BC4AE2004F003A00682502009E
:105210000000000000002000EC09B40010427800FB
:1052200084C6B20006003A009760A900140020006E
:10523000644988008460A9009460A80027003700B2
:1052400000002000EC09B4001042780034C7B2001E
:1052500005003A0030C7B3002EE9B7008760A90007
:105260009760A8001D00370000002000EC09B40082
:105270001042780014C3B20005003A0010C3B30016
:105280002EE9B7008760A9009760A80013003700D7
:1052900000002000EC09B4001042780024C3B200E2
:1052A00005003A0020C3B3002EE9B7008760A900CB
:1052B0009760A8000900370000002000EC09B40046
:1052C0001042780034C3B20004003A0030C3B30087
:1052D0002EE9B7008760A9009760A800D4230200D8
:1052E000000000002322AF00FEFF3700B4052000BD
:1052F000241188002322AF00FEFF3700540620004F
:10530000241188002322AF00FEFF3700D4052000BF
:10531000241188004200F80081E0A90042E0EF007B
:1053200081E0A800EC09F800000BF900520F020020
:105330000000000081E0A9004200F90081E0A8001F
:10534000F029ED0002003700D42302000000000025
:0C535000A2FF37000020EF000040FE002C
:020000040001F9
:0807F800C7F900FF7F3F00FF7D
:00000001FF
;PIC24FJ48GA002
;CRC=9896  CREATED="26-¾.Â.-17 14:09"
